:020000040800F2
:1000000048470020AD0100086D4D0008D1440008AC
:10001000694D0008911300083956000800000000DF
:10002000000000000000000000000000AD4E0008CD
:10003000E913000800000000A94E0008B14E0008B6
:10004000C7010008C7010008C7010008C701000870
:10005000C7010008C7010008C7010008C701000860
:10006000C7010008C7010008C7010008C701000850
:10007000C7010008C7010008C7010008C701000840
:10008000C7010008C7010008E911000800000000CE
:10009000000000000000000000000000C701000890
:1000A000C7010008C7010008C7010008C701000810
:1000B0006D4F0008C7010008C7010008C70100080C
:1000C000C7010008C7010008C7010008C7010008F0
:1000D000C701000861550008C701000800000000C2
:1000E000C7010008C7010008C701000800000000A0
:1000F000000000000000000000000000C701000830
:1001000000000000C7010008C7010008C70100087F
:1001100000000000000000000000000000000000DF
:10012000C7010008C701000895130008C7010008AF
:10013000C7010008000000000000000000000000EF
:10014000000000000000000000000000C7010008DF
:10015000C7010008C7010008C7010008C70100085F
:10016000C7010008C70100080000000000000000EF
:10017000000000000000000000000000000000007F
:1001800000000000C701000800000000000000009F
:10019000C7010008C7010008DFF80CD000F06CFDB3
:1001A00000480047A56100084847002006488047EE
:1001B00006480047FEE7FEE7FEE7FEE7FEE7FEE74C
:1001C000FEE7FEE7FEE7FEE7594F00089901000849
:1001D0002DE9F05F0546002092469B46884606467C
:1001E000814640241BE0284641464746224600F00F
:1001F000E6FA53465A46C01A914110D311461846A2
:10020000224600F0CDFA2D1A67EB01084F46224630
:100210000120002100F0C4FA17EB00094E41201E16
:10022000A4F10104DFDC484631462A464346BDE8D6
:10023000F09F00000FB400B58DB010A909900B908D
:1002400000914FF0FF300A9000200C900548069076
:10025000054807906A4609A80F9900F0D5FA0DB035
:100260005DF814FB25080008430800082DE9FF5F2E
:100270001D464FF0FF3BD5E9014691465F464FF0E2
:100280000008A9697F1C01988847296A8246884727
:100290000028F6D1BAF1FF3F0CD024F4C064002E40
:1002A00019DD600614D5BAF12B0F09D0BAF12D0F64
:1002B0000ED103E0584604B0BDE8F09F44F48064DA
:1002C000A9697F1C01988847761E8246002E02DDB0
:1002D000BAF1300F03D0B9F1000F26D032E0A9698E
:1002E000761E44F400747F1C019888478246002ED5
:1002F00005DDBAF1780F06D0BAF1580F03D0B9F185
:10030000000F10D01EE0B9F1000F02D0B9F1100FAC
:1003100018D1A969761E24F400747F1C01988847BF
:100320008246102002E0082000E00A20814609E011
:1003300008FB0908A969761E44F400747F1C019823
:1003400088478246002E05DD4946504600F047FAB0
:100350000028EDDAE96901988847A00502D46FF01A
:100360000100A8E7E00725D1600613D5600502D596
:10037000C8F1000000E0404629680A1D2A600968AB
:10038000220501D5087015E0220701D5088011E08B
:1003900008600FE02868011D29600068210502D56A
:1003A00080F8008006E0210702D5A0F8008001E077
:1003B000C0F8008038467EE72DE9FF4F087883B00B
:1003C0009946FF2805D0491C2D2804D00024002080
:1003D00008E000200BE00124F9E700EB800003EBCC
:1003E0004000491C0B78FF2BF7D104B14042002399
:1003F0000293147819461D462D2C01D02B2C04D1C4
:10040000521C2D2C13D000240294AA461478FF2CE1
:100410000FD00A25A3FB057801FB05814FF0000CE6
:1004200003FB0C11521CE3194AEB0101EEE7012416
:10043000EAE7814453EA010002D019F5C87F06DAE1
:1004400003980021C0E9001107B0BDE8F08F002536
:10045000AE4E2F46DFF8B882184600F0B4FBCDE967
:100460000001B9F1000002DAC9F1000400E004461D
:100470000023A74A1AEB030B42EB045A12E0E007F1
:1004800007D02A4633463846414600F0BBFA0746B5
:1004900088462A4633461046194600F0B3FA054608
:1004A0000E466410002CEAD1DDE90001B9F1000F1D
:1004B0005A46534606DA00F017FB3A46434600F028
:1004C00013FB05E000F09EFA3A46434600F09AFA24
:1004D000029A0AB181F00041039AC2E90001B3E730
:1004E0002DE9FF4F1F468DB0D7E901464FF0FF3889
:1004F0002E2045464FF000090B90B9696D1C0E98EF
:100500008847396A824688470028F6D1BAF1FF3F0A
:100510000AD024F4D064002E11DDBAF12B0F08D0DC
:10052000BAF12D0F0BD102E0404611B08DE744F433
:100530008064B9696D1C0E9888478246761E6946AC
:10054000600501D52D2000E02B208DF8000001F181
:10055000010B0DF1200809E0B9696D1C0E98884760
:1005600082460F9844F40074761E0560002E02DD6A
:10057000BAF1300FF0D00B998A453ED144F0800497
:1005800006E00F99681CA9F1010944F400740860A1
:10059000B9696D1C761E0E98884782463028F0D0C7
:1005A0002BE00B998A4505D1200603D444F0800442
:1005B000761E18E0504606F0CDF908B30DF113028F
:1005C000761EAAF1300044F40074934506D20BF86D
:1005D000010B200607D5A9F1010003E0200602D493
:1005E00009F101008146A00502D50F99681C086039
:1005F000B9696D1C0E9888478246002ED1DC53E005
:10060000002E51DDBAF1650F02D0BAF1450F4BD182
:10061000A00549D5B9696D1C24F44074761E0E9866
:1006200088478246002E0CDD2B2804D0BAF12D0F0E
:1006300007D144F48074B9696D1C0E9888478246CE
:10064000761EE00501D52D2100E02B2108F8011BC5
:10065000CDF82C8021E00DF12901761E44F40074C0
:1006600088450CD2AAF1300010F0FF0088F8000095
:1006700002D10B99884509D908F1010806E0E00587
:1006800001D5244801E042F20F708146B9696D1C22
:100690000E98884782460F980560002E04DD50466C
:1006A00006F058F90028D6D1F9690E988847FF203E
:1006B0008BF8000088F800000020069007904B4659
:1006C0006A4608A906A8FFF777FEA00502D46FF0D6
:1006D00001002AE714F0240F0AD0E00714D1DDE965
:1006E00006123868031D3B600068C0E900120BE089
:1006F000DDE9060100F0A4FA0146E00704D13868FC
:10070000021D3A600068016028460EE700001440B0
:100710000000F03FF1D8FFFF30B5041E71F1000476
:1007200004DB4FF00044404264EB0101141E73F1FE
:10073000000405DB1C464FF00043524263EB040308
:10074000101A8B4101D2012030BD002030BD00F0D5
:10075000004230F000400AD0C10D01F56071C0F3D5
:10076000160042EA0151C2084007114370470020B9
:100770000146704730B50B46014600202022012477
:1007800009E021FA02F59D4205D303FA02F5491B5F
:1007900004FA02F52844151EA2F10102F1DC30BD75
:1007A000202A04DB203A00FA02F100207047914031
:1007B000C2F1200320FA03F3194390407047202A26
:1007C00004DB203A21FA02F00021704721FA02F3FB
:1007D000D040C2F1200291400843194670473A28A0
:1007E00000D2303820F02002412A01D3A2F1370094
:1007F000884201D34FF0FF30704700000268114477
:100800001378016018467047D1600449516104496A
:10081000116200211161114600F05EBAFD07000867
:10082000CD0C0008426842B1016811F8013B23B1C8
:10083000521EC0E90012184670470121C160881E8F
:10084000704742685AB1C368016843B983688B42F4
:1008500005D0491E521CC0E90012002070474FF01D
:10086000FF307047F0B400F0004221F0004120F06A
:100870000040CE0DC30DC1F3160141F40001C0F3D9
:1008800016004C42154640F40000761E09E010EBBD
:10089000440002D582F0004240428842F7D840002E
:1008A0005B1EB342F9DA18B1F0BC002100F0B3BB13
:1008B0002846F0BC70472DE9FE4F804681EA0300D0
:1008C000C00F0C46009021F0004123F00045B8EB2A
:1008D0000200A94105D24046214690461C460B46DF
:1008E000024623F00040104347D0270DC7F30A000B
:1008F000C3F30A510290401A019040286BDAC3F307
:10090000130040F4801B0098924620B10023D2EBE4
:10091000030A63EB0B0B01985946C0F140025046A5
:10092000FFF73EFF06460D4650465946019A00F035
:10093000BBF910EB08006141002487EA115284EAF8
:10094000E7731A4340D0009A62B3019A012A4FEA32
:10095000075215DC001B61EB02014FF0004202EA76
:100960000752CDE90042001C41F5801132462B466A
:1009700000F08EFB03B0BDE8F08F40462146F9E75A
:10098000001B61EB0201001C41F5801300185B4164
:100990002018A2F5001747EB030140EAD570B619FD
:1009A0006D4111E06D084FEA360645EAC0754FEA21
:1009B0000752001B61EB0201001C41F58011490840
:1009C0004FEA30000019514132462B4603B0BDE8D2
:1009D000F04F00F04EBB0098012240000023D0EB06
:1009E000020263EBE073009821464FEAE074B8EB33
:1009F000000061EB0401E9E783F000435BE781F06D
:100A0000004158E72DE9FE4F81EA030404F0004459
:100A100021F0004100944FF0000B23F0004350EA16
:100A200001045ED052EA03045BD0C3F30A54C1F35D
:100A30000A552C44A4F2F3340194A0FB0254C1F3F0
:100A4000130141F48011C3F3130343F4801301FB3A
:100A5000024400FB034E840A970A44EA815447EAA1
:100A60008357A4FB076802958D0A05FB07854FEAAB
:100A7000932C04FB0C542705029D4FEA065847EAC5
:100A80001637B5EB08056EEB070C870E920E47EA9A
:100A9000811742EA8312A7FB0201B6EB0B0164EB5C
:100AA00000042B0D43EA0C335E1844EB1C50DA466D
:100AB0005146E7FB0201C5F313044FEA0B3343EA47
:100AC00014534FEA0432019C43EA0603A4F10C04D8
:100AD0000294009CCDE900B400F0DAFA03B0BDE85E
:100AE000F08F00200146F9E72DE9F04D81EA03047B
:100AF00004F0004B21F0004514464FF0000A23F0AB
:100B0000004150EA050220D054EA01021DD0C5F38D
:100B10000A570246C5F31303C1F31300C1F30A5683
:100B200040F4801543F48013A7EB0608101BD6464B
:100B300008F2FD3873EB050002D308F1010801E06B
:100B400092185B41B8F1000F03DA00200146BDE8BE
:100B5000F08D00204FF48011064684460EE0171BEE
:100B600073EB050705D3121B63EB050306434CEA41
:100B7000010C49084FEA300092185B4150EA010726
:100B8000EDD152EA030012D082EA040083EA0501A3
:100B9000084305D0101BAB4106D20122002306E01A
:100BA00000224FF0004302E06FF0010253101AEBF5
:100BB00006004CEB085110EB0A0041EB0B01BDE8BD
:100BC000F04D00F056BA0EB540F2334202920022C8
:100BD000CDE90022134600F05BFA03B000BDC1F37B
:100BE0000A52C1F3130140F2FF3341F480119A42DB
:100BF00002DA00200146704740F233439A42A2F2E3
:100C0000334202DC5242FFF7DABDFFF7C9BD0000F4
:100C100030B5041E71F1000404DB4FF00044404283
:100C200064EB0101141E73F1000405DB1C464FF058
:100C30000043524263EB0403994208BF904230BD27
:100C400001F0004330B421F0004150EA010206D027
:100C50000A0DA2F56072C1F31301002A02DC30BC58
:100C600000207047440F44EAC104C100E01830BCC2
:100C700000EBC25000F0C6B91CB509480090094805
:100C800001900546009C06E0E06840F0010394E80E
:100C9000070098471034AC42F6D3FFF781FA000002
:100CA0003871000858710008202A06DBCB17203A5B
:100CB00041FA02F043EAE07306E041FA02F3D04061
:100CC000C2F120029140084319467047C0B24FF468
:100CD000F05100F02BBA00002DE9F34F8BB04FF02C
:100CE000000801F10C000C464FF0010B46460DF1D7
:100CF000080A01906269012101989047051E2DD0D4
:100D0000252D2CD0216A8847C0B162690121019844
:100D10009047216A88470028F7D1411E62690198EF
:100D2000904700E0761CA1690B988847216A8847A4
:100D30000028F7D1E1690B988847DBE7A1690B9898
:100D400088470746A84201D1761CD3E7E1690B9892
:100D500088477F1C02D1B8F1000F6FD046E1002711
:100D600062693D463946019890472A2804D1626954
:100D70000121019890470125DFF8849262690121E1
:100D800001989047A0F130010A290AD24F45E5DCCD
:100D900007EB870100EB4107303FDFD445F010053A
:100DA000ECE7E90601D46FF000476C280AD04C2824
:100DB00014D0682815D06A280DD074281CD07A2841
:100DC0001AD01DE062690121019890476C2802D079
:100DD00045F0040514E045F002050DE045F020055E
:100DE0000AE06269012101989047682802D045F025
:100DF000080505E045F40065626901210198904706
:100E0000C4E9015765283DD019DC58287AD00CDC9C
:100E1000452837D004DC252826D0412831D131E0BF
:100E200046282FD047282CD12CE05B2877D061288A
:100E300028D063287CD0642823D15AE0D0E06F28E2
:100E400048D008DC66281DD067281BD0692821D02F
:100E50006E2816D127E0702845D0732868D07528F1
:100E600047D078280DD14DE0A1690B9888470546F9
:100E700025283FF469AFE1690B9888476D1C3FF462
:100E80006AAFB3E023466A466FF001000B99FFF7A3
:100E900027FB9EE045F040006060A80723464FF026
:100EA000000236D43EE0E8077FF447AF2068011D1A
:100EB00021600068290501D506701BE7290701D5C7
:100EC000068017E7A90703D5F117C0E9006111E70C
:100ED00006600FE745F040006060A80723464FF02A
:100EE000080216D41EE040F60E0125EA01006060FB
:100EF00016E045F040006060A80723464FF00A0264
:100F000007D40FE045F040006060A80708D52346ED
:100F100010226FF001000B99AFF3008059E007E059
:100F2000234610226FF001000B99FFF79FF950E064
:100F30004FF000094F464B46632802D05B2806D08D
:100F400040E0E80601D40120A06001273AE0626990
:100F50000121019890475E2805D14FF0010962698F
:100F6000494601989047216939B900210A465346FC
:100F700043F82120491C0829FADBB0B3216969B97B
:100F8000C11700EBD16253110AEB830122F01F025B
:100F9000821A01200B68904003430B6062690121B3
:100FA000019890475D28E8D1B9F1000F09D00020E1
:100FB000514651F82020D24341F82020401C0828F7
:100FC000F7DB02AB224600976FF001000B99AFF3FD
:100FD000008000280CDA401C08D1BBF1000F05D0BE
:100FE0004FF0FF300DB0BDE8F08FFFE74046F9E766
:100FF000E90701D108F1010806444FF0000B79E63A
:10100000CCCCCC0C0029A8BF7047401C490008BFBD
:1010100020F00100704710B4B0FA80FC00FA0CF028
:1010200050EA010404BF10BC704749B1CCF1200460
:1010300021FA04F411FA0CF118BF012121430843ED
:10104000A3EB0C01CB1D4FEA00614FEA102042BF19
:10105000002010BC704700EBC35010440029A4BF0F
:1010600010BC7047401C490008BF20F0010010BCB4
:10107000704710B5141E73F1000408DA401C41F1EA
:10108000000192185B411A4301D120F0010010BD0C
:101090002DE9F04D92469B4611B1B1FA81F202E082
:1010A000B0FA80F220329046FFF77AFB04460F46F2
:1010B00040EA0A0041EA0B0153465A46084313D05E
:1010C000114653EA010019D0C8F140025046FFF71B
:1010D00076FB05460E46504659464246FFF760FBF2
:1010E000084305D0012004E020463946BDE8F08DD4
:1010F0000020054346EAE0762C4337430A9863050F
:10110000E40AA0EB08000022FD0A44EA47540A3032
:1011100002D500200146E9E7010510196941DDE922
:10112000084500196941BDE8F04DA2E77F2801D9C3
:10113000002208E0064A02EB5002C007127800D1F4
:10114000120902F00F020120904008407047000091
:10115000D87000082DE9F04180460A2000F070FFA9
:10116000B8F1000F12D040F240140027C2F2000480
:10117000002500266088A188064401200D4400F067
:101180005FFF01374745F5D302E000BF0026002589
:10119000B6FBF8F040F2B004C2F20004B5FBF8F17F
:1011A000E06005A0616105F075FFE168626909A072
:1011B000BDE8F04105F0F4B8414443205A65726F30
:1011C0002043616C6962726174696F6E20446F6E56
:1011D00065210D004D69645F413A2564094D6964DC
:1011E0005F433A25640D0A0040F26410C2F2000029
:1011F00000F060BB90ED040A7047000090ED010A1A
:101200009FED041A9FED042A20EE010A20EE020A47
:10121000704700BF00008039DB0FC94090ED050A20
:1012200070470000B0B582B0044601600C208DF814
:1012300005004FF0FF350DF1050208466C21012332
:10124000009501F02DFA20680DF106026D210223B0
:10125000009501F097F8BDF8060000BA000C00EE0A
:10126000100AB8EE400A84ED010A00F0D3FF002115
:10127000C4E9020121610020616102B0B0BD00003B
:1012800070B52DED028B82B004460C2100688DF8FC
:1012900005104FF0FF350DF105026C21012300957B
:1012A00001F0FEF920680DF106026D210223009580
:1012B00001F068F8BDF8066000F0ACFFA1680546D3
:1012C000401A00EE100A9FED2C1AB8EE400A80EE8C
:1012D000018A18EE100AFFF73AFA9FED250B53EC3E
:1012E000102BFFF719FAE0BB30BA000C94ED014A5D
:1012F0009FED222A00EE100A9FED213AB8EE400A37
:1013000024EE025A25EE036A30EE445A9FED1D4A40
:1013100094ED031AB0EEC57AB4EE447AF1EE10FA09
:1013200036EE014A0CDD18A0B5EE405AF1EE10FA87
:10133000C8BF043090ED005A31EE051A84ED031A4F
:1013400020EE022A22EE032A32EE011A31EE442A5E
:1013500082EE082A84ED041A84ED010AA56084ED6A
:10136000052A02B0BDEC028B70BD00BF00BF00BFFC
:101370002D431CEBE2361A3F00007A44000080390E
:10138000DB0FC940CDCC4C45DB0FC940DB0FC9C0DA
:10139000FEE7000040F2AC10C2F2000000F06CBCAE
:1013A0004EF6FC50CEF20000016841F08071016001
:1013B00041F20000CEF20000016841F0010101603D
:1013C0000021416040F28C00C2F2000000684DF63E
:1013D0008361C4F21B31A0FB0101880C40F2601153
:1013E000C2F20001086070477047000072B600BF8B
:1013F000FEE7000090F83C20012A04BF022070475D
:10140000F0B5D1F800C00122BCF10A0F80F83C20F1
:101410000CD31FFA8CFE4FEA4E02036812FA8CF2CC
:10142000A2F11E0403F10C0206E000BF03680CEBFE
:101430004C0403F11002E64607251668A54026EA8B
:10144000050515608D68166805FA04F434431460C8
:101450009A6B002622F440129A634D680A698C69DF
:10146000CFF6F0769F6B06EB0256AA1A3E43033284
:101470009E63D6B2B60056FA82F21F269F6B964044
:1014800027EA06069E639E6B0EFA02F232439A63C7
:101490009A68012722F470229A609A68C0F20F07B6
:1014A000BC4203D122F440140AE000BF22439A60F8
:1014B0009A6822F440129A60CA699F6847EA020457
:1014C0009C600A7D4F7D5E68002F26F4806618BF01
:1014D00006F580665E605F68002A27F4805718BFB3
:1014E00007F58057032D5F6008D0022D0AD0012D2B
:1014F00014BF03F1200203F1140205E003F11C0202
:1015000002E000BF03F11802176840F6FF76B74308
:101510001760CF68166842F20431C4F20101374304
:10152000A1F54176B342176013D11222C1F2000235
:10153000944505D0BCF1120F06D0BCF1110F08D1B3
:101540004FF4000202E000BF4FF480020B681A4320
:101550000A60002180F83C10BDE8F0400846704762
:10156000006842F20001C4F20101884218BF7047CE
:10157000B0B540F26414C2F200042046012100F02C
:1015800037F840F24015C2F200056880204602217B
:1015900000F02EF840F2B001A880C2F20001688885
:1015A0008A899FED121A801A00EE100AA8888A8A8A
:1015B000B8EEC00A801A02EE100AB8EEC22A20EE77
:1015C000010A22EE013A22EE411A33EE402A81ED61
:1015D000000A81ED012A81ED021A28780128BDE870
:1015E000B04008BF04F0BABB704700BFCDCC4C3A46
:1015F00081B000220092006801396FF004020329D3
:1016000002600BD8DFE801F002040608C06B04E0BA
:10161000006C02E0406C00E0806C0090009801B02B
:101620007047000081B00021009190F83C10012922
:1016300002BF022001B070470122016880F83C20FF
:101640008A68D20729D18A684DF6836342F0010285
:101650008A6040F28C02C2F200021268C4F21B33AC
:10166000A2FB03239A0C02EB42020092009AA2B161
:10167000009A013A0092009A7AB1009A013A0092D7
:10168000009A52B1009A013A0092009A2AB1009A47
:10169000013A0092009A002AEAD18B68026CDB07BB
:1016A0000AD142F010010164416C41F00101416432
:1016B000002001B0704700BF43F201039A4302F5D6
:1016C00080520264026C42F2080CD2055CBF002218
:1016D0004264002280F83C206FF0040008604868F3
:1016E000C4F2010C40F080004860DCF8FC028A681B
:1016F0004B68C0060ED0ACF1080081424FF00000EC
:1017000005D112F4401108BF13F480610ED001B06E
:10171000704700BF03F4806002F440128018C7D104
:10172000886840F480008860C2E700BFDCF80000F1
:1017300040F48000CCF80000BAE7000070B581B03A
:101740000022009290F83C20012A03D10221084691
:1017500001B070BDD1F800E00122BEF10A0F1FFAFE
:101760008EFC80F83C2009D34FEA4C02036812FA41
:101770008EF2A2F11E0403F10C0204E003680EEBEA
:101780004E0403F1100207251668A54026EA050558
:1017900015608D68166805FA04F4344314604968CE
:1017A000062907D801EB81014A1F194651F8345F19
:1017B0000FE000BF0C2901EB810105D8A1F1230244
:1017C000194651F8305F04E0A1F14102194651F881
:1017D0002C5F1F24944025EA04040C600CFA02F2EA
:1017E0000C6842F2043CC4F2010C2243ACF5417493
:1017F000A3420A6006D0002180F83C10084601B0E0
:1018000070BD00BF1221BEF1110FC1F2000118BF5F
:101810008E453BD1DCF800208E4522F48002CCF8C6
:101820000020DCF8002042F40002CCF80020E2D1D5
:1018300040F28C01C2F2000109684DF68362C4F2E5
:101840001B32A1FB0212910C01EB810149000091B6
:1018500000990029CFD000BF00990139009100996B
:101860000029C8D000990139009100990029C2D0FF
:1018700000990139009100990029BCD000990139E3
:10188000009100990029E7D1B5E700BFBEF1120F22
:10189000B1D1DCF8001021F40001CCF80010DCF824
:1018A000001041F48001CCF80010A4E7704700005C
:1018B0007047000070B50446006806684568B107C7
:1018C00017D515F0200114D0216CC90603D4216C62
:1018D00041F400712164816811F0405F02D1217EE2
:1018E000002969D02046FFF7E1FF20686FF0120160
:1018F0000160710714D515F0800111D0216CC90663
:1019000003D4216C41F400512164816811F4401F1B
:1019100022D02046FFF724FE20686FF00C01016002
:10192000F10706D015F040011CBF01685FEAC171E4
:1019300034D1B1060FD515F0806108BF70BD616C60
:101940006FF0200541F00201616405602046FFF759
:10195000AFFF2068056070BD816B11F4401F02D09D
:1019600081684905D5D441684905D2D4816811F010
:10197000405FCED1217E0029CBD1416821F080018A
:101980004160206C20F480502064206CC005C0D4DD
:10199000206C40F001002064BBE700BF206C40F4E5
:1019A00080302064204600F0D1F820686FF00101FB
:1019B0000160B106BFD4CEE7C16A11F4700F03D045
:1019C000816849053FF58EAF416821F020014160F3
:1019D000206C20F480702064206CC0043FF582AF3E
:1019E000206C40F0010020647CE70000002804BF68
:1019F0000120704710B50446006C00283ED0206CD2
:101A0000C00645D4206C41F202118843023042F2F4
:101A100004312064C4F20101086820F440300860F9
:101A20000A6894E809101A43D4F810E00A60416883
:101A3000012321F4807141604168C0F6007341EADE
:101A40000E214160416821F040714160416841EAE6
:101A50000C014160816821F400618160E168826865
:101A600011438160A16A8268994222F070628260AB
:101A7000826813D122F0405119E000BF204600F0E7
:101A800067F80020606484F83C00206CC006B9D57B
:101A90000120002184F83C1010BD00BF114381607B
:101AA000816821F040518160E16A82681143816060
:101AB000816821F0020181608168227E94F82030E3
:101AC00041EA42018160416883B141F400614160B3
:101AD00041684EF2000221F460414160616ACFF634
:101AE000FF72436802EB4131194301E021F40061C8
:101AF0004160C16A40F2000C21F47001C162E269E8
:101B00006169CFF6F07CC36A0CEB02521A43C262E1
:101B1000826822F40072826094F83020836843EA7D
:101B200042228260826822F480628260826842EA95
:101B30008121816000206064216C012262F3010137
:101B40002164002184F83C1010BD000070470000A3
:101B500080B586B042F200010068C4F201010022A3
:101B600088420592049201D006B080BD43F6300051
:101B70000092C4F20200436943F4807343614369F5
:101B800003F480730093009B0092036843F0010309
:101B90000360006800F00100009000980320CDE988
:101BA000010001F5604001A9039200F05DFA1220E6
:101BB0000021002200F014FF122000F0FFFE06B00A
:101BC00080BD000070B5866D044600F023FB94F8DC
:101BD0003510022928D105462068216C026822F0C0
:101BE00016020260426922F08002426109B9A16CCA
:101BF00019B1016821F008010160016821F00101BB
:101C0000016000BF20680068C00715D000F002FB2B
:101C1000401B0628F6D320206065032084F8350099
:101C2000002184F8341070BD8020606501200021FF
:101C300084F8341070BD00BFE06D3F2101FA00F060
:101C4000B060012084F835000020002184F83410B1
:101C500070BD000090F83510022909D1052180F8E7
:101C600035100068016821F0010101600020704713
:101C70008021416501207047F0B581B00446002005
:101C8000009040F28C00C2F200000268D4E91660B5
:101C900048F2B51337680821C1F64E338140394206
:101CA000A2FB03250CD0226813685B0708D51368D4
:101CB00023F004031360B160616D41F001016165BF
:101CC00001218140394208D022685269120604D5A8
:101CD000B160616D41F002016165042181403942CA
:101CE00008D022681268920704D5B160616D41F096
:101CF0000401616510218140394217D020680268D3
:101D0000120713D5B16002680168520308D4C905EF
:101D100008D4016821F008010160216C21B905E0B7
:101D200008033FD4216C09B120468847E16D20208B
:101D300000FA01F23A4241D020680368DB063DD543
:101D4000B26094F835300268052B1BD122F01602E0
:101D50000260426922F080024261226C0AB9A26CE0
:101D60001AB1026822F0080202603F208840B06089
:101D7000012084F83500216D0020002984F834000A
:101D800052D157E00168520310D4C90512D401683A
:101D900021F010010160012084F83500002084F852
:101DA000340007E0A16C0029BED1BFE7080301D4CD
:101DB000616C00E0E16B09B120468847606DC8B3F3
:101DC000606DC0072ED0052084F835002068A90A70
:101DD000026822F001020260009A01328A420092F7
:101DE0001AD80268D20717D0009A01328A420092AC
:101DF00012D80268D2070FD0009A01328A420092AC
:101E00000AD80268D20707D0009A01328A420092AB
:101E100002D80268D207DFD1012084F83500002003
:101E200084F83400E16C29B1204601B0BDE8F040EF
:101E3000084700BF01B0F0BD2DE9F041044600F0B5
:101E4000E9F9ECB10546022084F83500002021684C
:101E500084F83400086820F00100086021680868F0
:101E6000C00711D000F0D6F9401B0528F6D903258C
:101E700020230320636584F83550BDE8F08100BF5E
:101E80000120BDE8F08100BF086848F23F02CFF2B0
:101E90001002D4E9013500EA020C04F10C0898E8BC
:101EA000C10143EA0C032B431843D4E9072E304306
:101EB00038431043626A40EA0E00042A40EA0803ED
:101EC0001CD1206BD4E90A2E40EA0E0018430860AA
:101ED0004869BEF1000F20F0030040EA020040F024
:101EE000040C11D0B8F5005F36D0B8F1000F45D121
:101EF000022A46D0012A3BD032B942E00B60486941
:101F000020F0070040EA020C01F0F8004AF6AB228C
:101F10001038CAF6AA22A0FB02231A0947F230138E
:101F2000C1F814C0C0F600039A5C40F2FF335F288A
:101F30004FF03F0021EA030100FA02F088BF0431AC
:101F4000C4E916128860002301250020636584F827
:101F50003550BDE8F08100BF032AD5D801254023C4
:101F60000120DFE802F0030E030500BF82E700BF97
:101F7000AEF1C070B0FA80F0400904E0032A04D347
:101F8000C2D1CEF300600028BED00125402301203D
:101F9000636584F83550BDE8F081000090F834C0E6
:101FA000BCF1010F04BF0220704770B54FF0010C67
:101FB00080F834C0D0F858E090F835C0BCF1010F7B
:101FC00038D14FF0020C80F835C04FF0000CC0F84B
:101FD00054C0D0F800C08468056CC06DDCF80060A7
:101FE000402C26F48026CCF80060CCF804300B4658
:101FF00004BF13460A463F2101FA00F0CCF808302E
:10200000CCF80C20CEF80800DCF8000040F01600F8
:10201000CCF800002DB1DCF8000040F00800CCF84E
:102020000000DCF8000040F00100CCF800000020C7
:1020300070BD00BF002180F83410022070BD000088
:10204000B0B5044600F0E6F8054640F20800C2F2DA
:1020500000000078611C18BF044400BF00F0DAF8EB
:10206000401BA042FAD3B0BD2DE9F04F82B000F181
:102070003E4707F1FF77860546EA972741F20006BB
:10208000C4F20206072243F6004EB04208BF042203
:10209000C4F2010E042F38BF3A46002600274FF045
:1020A0000008009209E000BF08F101080237B8F10A
:1020B000100F06F1040600F0A3800D68012202FA59
:1020C00008F415EA0409EFD0D1F804B003220BF0AC
:1020D000030CACF10105BA40012D6FEA020A0FD8DA
:1020E0008268CD6802EA0A02BD402A4382604268E3
:1020F000A243CBF3001404FA08F42243426005E043
:10210000BCF1030F02D14FF0030C1EE0C2688C68D3
:1021100002EA0A02BC402243BCF1020FC26014D1A1
:102120006FF0030202EA58020244D2F820C006F01F
:102130001C040F230D69A3402CEA0303A5402B4385
:102140001362D1F804B00BF0030C02680CFA07F329
:1021500002EA0A021A431BF4403F0260A4D00022A4
:1021600043F644030192C4F202031A684FF6084C86
:1021700042F480421A601A68CFF6FF7C02F4804273
:102180000192019A28F00302724452F80C3006F0D2
:102190000C050F24AC40A343009C04FA05F52B4327
:1021A00042F80C30DEF808204B6842EA090543F695
:1021B0000C4CDC0258BF22EA0905CEF80850C4F2E4
:1021C000010CDCF800209C0242EA090558BF22EA13
:1021D0000905CCF80050DEF804209C0342EA09050A
:1021E00058BF22EA0905CEF80450DEF80020DB03D0
:1021F00042EA090558BF22EA0905CEF8005053E724
:1022000002B0BDE8F08F0000002A08BF0904816118
:102210007047000044F24030C2F20000006870478E
:10222000002804BF01207047F0B581B0044690F843
:102230003D0028B9002084F83C00204600F01EFB39
:10224000242084F83D002068016821F0010101602C
:10225000016841F400410160016821F4004101601E
:1022600000F0ACFC636848F2A16CC0F2010C40F6CF
:102270000011C0F23D0163453CBF48F28041C0F20D
:102280001E01884202D2012001B0F0BD4DF68361EB
:10229000C4F21B31A0FB01122168970CD1F804E0B5
:1022A0004FF496762EF03F0545EA92454D60774310
:1022B00048F638160D6AC0F24106A7FB067625F0EF
:1022C0003F07634538BF960C721C3A430A62CA69DD
:1022D00048F2A0664CF6FF77C0F20106B34222EA4C
:1022E00007020BD801385B00B0FBF3F001306FF34D
:1022F0001F30042898BF04201BE000BFA7680138E6
:1023000057B119277B43B0FBF3F001306FF31F3057
:1023100070B100F5804007E003EB4303B0FBF3F03E
:1023200001306FF31F3018B100F5004001E000BF2D
:1023300001201043C8610868D4E9072320F0C000D9
:10234000104318430860886848F2FF3204F10C0714
:1023500090438CCF18431043A6698860C86820F06A
:10236000FF0038433043C860086840F0010008604F
:1023700000202021206484F83D10206384F83E0072
:1023800001B0F0BD2DE9F04383B01F4616468946E3
:102390000446FFF73FFF94F83D10202924D105465D
:1023A000206800BF816989071AD5FFF733FF411BF9
:1023B00020681A29F6D381698907F3D500202021E6
:1023C000206384F83D1084F83E00216C41F0200128
:1023D000216484F83C00022003B0BDE8F08300BF14
:1023E00094F83C10012903D1022003B0BDE8F0832A
:1023F000012184F83C100168C90703D1016841F04C
:1024000001010160016840F2040821F400610160EB
:10241000222184F83D10102184F83E10002121640F
:1024200066626785618DC0F201082185A8F50031DB
:102430000439E162E16A02680A9F42F4806211F5A0
:10244000803F026018BF012942D1016841F48071C8
:10245000016020464FF0011100223B46009502F03A
:1024600097F858B120680068C00544BF4FF4007069
:102470002064012003B0BDE8F08300BF2069B0F5FF
:10248000804F2BD149F00100C0B221683A46086163
:10249000A8F1020120462B4602F060F90028E8D19D
:1024A000208D002850D0022866D001286ED12168E6
:1024B0000A6822F480620A60002202924A6902924B
:1024C0008A690292029A0A6842F400720A6078E00D
:1024D0000829BAD0216B1129B7D0BAE7062000EA43
:1024E000D916206806F1F001016108F104012046C7
:1024F0003A462B4602F032F90028BAD120685FFA3A
:1025000089F10161A8F1020120463A462B4602F00A
:1025100025F90028ADD100200290206800224169F1
:102520003B460291816902910299016841F48071F0
:10253000016020464FF00111009502F029F80028B3
:1025400090D146F0F100A0E7002002902068416998
:102550000291816902910299016841F40071016060
:10256000202084F83D00002084F83E0084F83C00E0
:1025700003B0BDE8F08300BF21680A6822F48062DE
:102580000A600A6842F4006204E000BF21680A6839
:1025900042F480620A60002202924A6902928969CA
:1025A000029102990DE000BF10690870606A218DE8
:1025B00001306062481E2085618D0139618501040A
:1025C000CED080B203280FD802284AD001282DD1BE
:1025D000204639462A4602F02DF900287FF449AFFB
:1025E0002068616A0069E0E7204639462A4602F021
:1025F00021F900287FF43DAF2068616A0069087006
:10260000606A2268411C208D616201382085638DDB
:10261000013B638553695B07D1D580B20328C3D1E1
:10262000106820F480601060BEE700BF204641467D
:1026300000223B46009501F0ABFF00287FF419AF64
:102640002068616A026822F4806202600069087092
:10265000606A218D01306062481E2085608D0138DE
:1026600060852046414600223B46009501F090FFE0
:1026700000287FF4FEAE2068616A026842F40072AE
:10268000026000690870606A2268411C6162218DE5
:1026900001392185618D013961851169417085E7B5
:1026A0002DE9F04383B01E46174689460446FFF7DE
:1026B000B1FD94F83D10202924D10546206800BFC3
:1026C000816989071AD5FFF7A5FD411B20681A29E2
:1026D000F6D381698907F3D500202021206384F88F
:1026E0003D1084F83E00216C41F02001216484F803
:1026F0003C00022003B0BDE8F08300BF94F83C101A
:10270000012903D1022003B0BDE8F083012184F840
:102710003C100168C90703D1016841F00101016063
:10272000016840F2020821F400610160212184F86F
:102730003D10102184F83E100021216467626685F7
:10274000618DC0F201082185A8F10211E162E16A00
:102750000A9E11F5803F18BF01291DD1016841F47F
:102760008071016020464FF0011100223346009530
:1027700001F00EFF50B120680068C00544BF4FF45F
:1027800000702064012003B0BDE8F0832069B0F53B
:10279000804F07D1FE2015E00829DFD0216B1229D8
:1027A000DCD0DFE7062000EAD9102168F0300861AC
:1027B00008F10601204632462B4601F0CFFF0028E3
:1027C000E0D1FF20216800EA090008612046414667
:1027D00032462B4601F0C2FF0028D3D100200290E0
:1027E00020684169029180690290029806E000BF6A
:1027F000204631462A4601F06DFE18BB208D68B395
:10280000204631462A4602F05DF8D8B9606A216850
:10281000024612F8013B0B616262628D013A6285E9
:10282000228D531E23854F697F07E1D51B04DFD01E
:10283000437802300B616062608D01386085901EC4
:102840002085D5E7206C04289CD12068016841F4DC
:1028500000710160012003B0BDE8F08320680168C9
:1028600041F400710160202084F83D00002084F8CC
:102870003E0084F83C0003B0BDE8F083016845F2F7
:102880000040C4F20000814218BF7047B0B586B066
:10289000002443F630050194C4F20205296800F5CE
:1028A000D83041F002012960296801F0020101914C
:1028B0000199C02101911221CDE902140321049153
:1028C0000421059101A9FFF7CFFB0094286940F48A
:1028D00000102861286900F400100090009806B0EC
:1028E000BDE8B0407047000040F2080044F24031BB
:1028F000C2F20000C2F2000100780A6810440860C9
:102900007047000080B543F60040C4F20200016841
:1029100041F400710160016841F480610160016867
:1029200041F480710160032000F086F80F2000F070
:1029300005F800F027F8002080BD000070B540F2D7
:102940000806C2F2000640F28C013278C2F20001A1
:102950004FF47A730968B3FBF2F20446B1FBF2F16B
:10296000084600F061FB0F2C4FF0010508D838B97C
:102970004FF0FF3021460022002500F031F874604E
:10298000284670BD82B0002043F640010190C4F299
:1029900002014A6842F480424A604A6802F4804276
:1029A0000192019A0090086840F080500860086821
:1029B00000F080500090009802B07047002848BF97
:1029C000704700F01F01012202FA01F11C2202EA05
:1029D000D0004EF20012CEF200028150704700008B
:1029E00010B54EF60C5CCEF2000CDCF80030C3F3F0
:1029F000022E8EF00704042C28BF0424BEF103032A
:102A00004FF0FF3E0EFA04F438BF0023A143994073
:102A10000EFA03F39A43114300F00F0200F16043F2
:102A20000901043A03F564436244002848BF02F1F7
:102A30000C03197010BD00004EF60C51CEF20001CF
:102A40000A684FF6FF031A4060F30A2242F08060E2
:102A500040F0FD7008607047002804BF01207047F7
:102A60002DE9F04143F60808C4F202080446D8F8FC
:102A7000F8030D4600F00700884207D288F8F853A3
:102A8000D8F8F80300F00700A84277D12068810742
:102A900017D5410705D5D8F8001041F4E051C8F822
:102AA0000010010705D5D8F8001041F46041C8F8BE
:102AB0000010D8F80010A26821F0F0011143C8F806
:102AC0000010C00740D1D8F8F80300F00700A84272
:102AD00007D988F8F853D8F8F80300F00700A8429F
:102AE0004CD12068410707D5D8F80010E26821F4DE
:102AF000E0511143C8F80010000708D5D8F80000CD
:102B0000216920F4604040EAC100C8F8000000F0EC
:102B10007DF8D8F8001047F21812C1F30311C0F67F
:102B20000002515C40F28C0220FA01F140F20C00EC
:102B3000C2F200000068C2F200021160FFF7FEFE60
:102B40000020BDE8F08100BF6068811E022907D225
:102B500058F8081C89015CBF0120BDE8F08111E034
:102B6000012807D158F8081C89035CBF0120BDE883
:102B7000F08107E058F8081C890703D40120BDE85C
:102B8000F08100BFD8F8001021F003010843C8F815
:102B90000000FFF73FFB064641F28837D8F80000F7
:102BA000616800F00C00B0EB810F8CD0FFF732FBB6
:102BB000801BB842F2D90320BDE8F08140F28C00BE
:102BC00043F60801C2F20000C4F20201006809687D
:102BD00047F22812C1F38221C0F60002515CC840BE
:102BE0007047000040F28C0043F60801C2F200007A
:102BF000C4F202010068096847F22812C1F34231A9
:102C0000C0F60002515CC8407047000010B543F6A2
:102C10000404C4F20204606800F00C0008280BD021
:102C2000042819BF42F20040C0F2F40047F6400009
:102C3000C0F27D1010BD00BF2068216823684902E2
:102C400047F64001C0F27D1100F03F02C3F3881047
:102C50005CBF42F20041C0F2F401A1FB000100237D
:102C6000FDF7B6FA21680222C1F3014102EB4101EE
:102C7000B0FBF1F010BD0000002804BF0120704738
:102C80002DE9F04182B00446007843F60006C00703
:102C9000C4F202060CD0B06800F00C00042840F02A
:102CA00081803068800303D56068002800F06A8165
:102CB000207880071BD5B06810F00C0F09D0B068E1
:102CC00000F00C00082840F087807068400200F196
:102CD00083803068800703D5E068012840F0528186
:102CE0003068216920F0F80040EAC10030602078A7
:102CF000000713D4207840072AD4A569002D00F0DE
:102D00003C81B06800F00C00082840F0A180012D43
:102D100040F01081012002B0BDE8F0816069002818
:102D200040F20000C4F2472000F07E800121C0F88C
:102D3000801EFFF76FFA0546706F8007DAD4FFF741
:102D400069FA401B0228F7D9032002B0BDE8F081E0
:102D5000306C5FEAC0080AD400200190306C40F06B
:102D600080503064306C00F080500190019847F240
:102D70000007C4F200073868C00547D4386840F43B
:102D800080703860FFF746FA054600BF3868C00516
:102D90003CD4FFF73FFA401B0228F7D9032002B0CA
:102DA000BDE8F081B06800F00C00082803D170681D
:102DB00040023FF576AF6068B0F5803F07D0B0F5D0
:102DC000A02F40F09B80306840F480203060306855
:102DD00040F4803030609BE0E06800285CD0002048
:102DE000C4F2472001210160FFF714FA054600BF35
:102DF000306880073FF574AFFFF70CFA401B0228DC
:102E0000F6D9032002B0BDE8F08100BFA068012818
:102E100005D0052854D1306F40F004003067306F82
:102E200040F00100306755E00021C0F8801EFFF738
:102E3000F1F90546706F80077FF55CAFFFF7EAF99F
:102E4000401B0228F6D9032002B0BDE8F08100BF84
:102E50000027C4F2472700203866FFF7DBF9022D70
:102E600005460DD13068800140F19080FFF7D2F91E
:102E7000401B02284FF00300F4D902B0BDE8F081F6
:102E80003068800179D5FFF7C5F9401B02284FF063
:102E90000300F5D9F1E700BF0020C4F2472000216C
:102EA0000160FFF7B7F90546306880077FF51FAF6F
:102EB000FFF7B0F9401B02284FF00300F4D9DCE71C
:102EC000316F002821F001013167316F21F00401D9
:102ED00031677DD0FFF79EF9054641F2883700BF84
:102EE000306F800700F18680FFF794F9401BB842ED
:102EF000F6D9032002B0BDE8F08100BF3168002898
:102F000021F480313160316821F4802131607BD03F
:102F1000FFF780F9054600BF306880033FF5C8AE73
:102F2000FFF778F9401B6428F6D9032002B0BDE80A
:102F3000F08100BF7068E16900F480028A4221D10B
:102F4000216A00F03F028A421CD147F6C071626AD2
:102F50000140B1EB821F15D1A16A4FF6FF73C9037F
:102F6000994300F44032A1F580318A420AD1E16AE6
:102F700000F07060B0EB016F04D1002002B0BDE83A
:102F8000F08100BF012002B0BDE8F08104F11C0512
:102F90002FCD084340EA8210D9034FF6FF729143C8
:102FA000A1F5803140EA0560084370600120386671
:102FB000FFF730F9044600BF30688001DDD4FFF729
:102FC00029F9001B02284FF00300F5D955E700BF8F
:102FD000FFF720F9054641F2883700BF306F8007C0
:102FE00008D5FFF717F9401BB8424FF00300F5D999
:102FF00043E700BFB8F1000F3FF57FAE306C20F023
:103000008050306479E600BFFFF704F9054600BF41
:10301000306880037FF54CAEFFF7FCF8401B642856
:103020004FF00300F4D928E7411E0020B0EB116FE8
:103030001CBF012070474EF21002CEF20002516018
:103040004EF62351CEF20001F0230B700721906061
:1030500011607047704700007047000090F83C20F6
:10306000012A04BF02207047B0B501F108053CCD2C
:10307000D1E900CE23F47C5322F470521A432EF48B
:10308000F0431A432CF4E0431A4324F4C0431A4398
:103090002A43C96922F4804203681143596400211C
:1030A00080F83C10BDE8B0400846704790F83C20DE
:1030B000012A4FF0020241D010B580F83D2002688D
:1030C000D2F804E0D2F808C00C682EF07003234355
:1030D00040F6FF34C4F20004A242536010DCB2F1A7
:1030E000804F1ED040F20043C4F200039A4218D031
:1030F00040F60003C4F200039A4212D016E000BF6B
:1031000040F60043C4F200039A420AD044F200039E
:10311000C4F201039A4204D00023C4F201039A428C
:1031200004D149682CF080031943916001210022E9
:1031300080F83D1080F83C20BDE8104010467047F4
:10314000002804BF0120704710B5044690F83D00E8
:1031500028B9002084F83C00204600F01FF8022027
:1031600084F83D002068211D01F006FF012084F84D
:10317000460084F83E0084F83F0084F8400084F85C
:10318000410084F8420084F8430084F8440084F845
:10319000450084F83D00002010BD000080B582B0DD
:1031A0000068B0F1804F15D00021C4F201018842BF
:1031B0000ED10020019043F64000C4F202004168A5
:1031C00041F001014160406800F001000190019868
:1031D00002B080BD0020009043F64000C4F202001F
:1031E0000168002241F0010101600068002100F047
:1031F0000100009000981C20FFF7F2FB1C2002B099
:10320000BDE88040FFF7DABB90F83D1001291CBFF4
:1032100001207047022180F83D10006840F6FF3120
:10322000C4F2000188420FDCB0F1804F1DD040F2A3
:103230000041C4F20001884217D040F60001C4F2F8
:103240000001884211D017E040F60041C4F20001AD
:1032500088420AD044F20001C4F20101884204D03D
:103260000021C4F20101884206D1816801F0070102
:10327000062904BF00207047016841F00101016088
:103280000020704790F83D1001291CBF01207047B5
:10329000022180F83D10006840F6FF32C168C4F298
:1032A0000002904241F00101C1600FDCB0F1804F9B
:1032B0001DD040F20041C4F20001884217D040F610
:1032C0000001C4F20001884211D017E040F600412D
:1032D000C4F2000188420AD044F20001C4F20101A4
:1032E000884204D00021C4F20101884206D18168DD
:1032F00001F00701062904BF00207047016841F072
:10330000010101600020704790F83C20012A4FF035
:10331000020200F0C58080B580F83D20D0F800C0E2
:103320004FF67772DCF8083023EA0202CCF8082066
:103330000B684F2B28DC1F2B44DD202B45D0302B76
:1033400043D0402B40F0AE80D1F804E0C968DCF8EF
:103350002030DCF8202022F00102CCF82020DCF81C
:10336000182022F0F00242EA011123F00A0242EA98
:103370000E02CCF81810CCF82020DCF8081041F030
:10338000470121F0300180E06F2B27DDB3F5005FAE
:1033900048D0B3F5805F7AD0702B40F08380D1E9BC
:1033A00001E3C968DCF8082043EA0E0322F47F42F7
:1033B00043EA01211143CCF80810DCF8081041F071
:1033C000770162E00BB1102B6CD1DCF8081021F012
:1033D0007001194341F0070157E000BF502B35D071
:1033E000602B5FD1D1F804E0C968DCF82030DCF84C
:1033F000202022F01002CCF82020DCF8182022F443
:10340000704242EA013123F0A00242EA0E12CCF8E7
:103410001810CCF82020DCF8081041F0670121F0EA
:10342000100132E0D1E901E3C968DCF8082043EA81
:103430000E0322F47F4243EA01211143CCF8081025
:10344000DCF8081041F480411FE000BFD1F804E02F
:10345000C968DCF82030DCF8202022F00102CCF82A
:103460002020DCF8182022F0F00242EA011123F0BB
:103470000A0242EA0E02CCF81810CCF82020DCF840
:10348000081041F0570121F02001CCF8081000226B
:10349000012180F83D10002180F83C10BDE88040FB
:1034A000104670470122F3E77047000070B50446EC
:1034B0000068C5680669B10716D515F0020113D07A
:1034C0006FF002010161012121778069800703D03B
:1034D0002046FFF7E9FF05E0204600F08FF8204680
:1034E00000F0BAF900202077700719D515F0040014
:1034F00016D020686FF004010161022121778069F4
:1035000010F4407F04D02046FFF7CEFF06E000BF56
:10351000204600F073F8204600F09EF90020207746
:10352000300717D515F0080014D020686FF0080197
:10353000016104212177C069800703D02046FFF78D
:10354000B3FF05E0204600F059F8204600F084F96A
:1035500000202077F00619D515F0100016D020684D
:103560006FF01001016108212177C06910F4407FDC
:1035700004D02046FFF798FF06E000BF204600F089
:103580003DF8204600F068F900202077F00718BFCA
:1035900015F0010002D1300609D412E020686FF066
:1035A00001010161204600F0D1F9300609D515F07E
:1035B000800006D020686FF0800101612046FFF78F
:1035C00049FD700609D515F0400006D020686FF05F
:1035D00040010161204600F041FAB00658BF70BDBD
:1035E00015F0200008D021686FF0200220460A6103
:1035F000BDE87040FFF730BD70BD000070470000AF
:1036000090F83C30012B04BF022070474FEAB20211
:10361000032A3BD82DE9F043DFE802F0023E7AB4FA
:10362000036800261D6A1A6AC4F2010622F001022C
:103630001A621A465C6852F818CFB3428E68D1F805
:1036400000E025F0020545EA06050CD1CE68D1E977
:10365000057824F4407425F00C0526F004063C435C
:10366000354344EA08042CF0730747EA0E075C6010
:103670009F614F6809695F631D629F6947F0080792
:103680009F619F6927F004079F61AAE00121002242
:1036900080F83C2008467047036800261D6A1A6AB5
:1036A000C4F2010622F010021A621A46D3F804C0CE
:1036B00052F8184FB3428E68D1F800E025F020058B
:1036C00045EA06150FD1CE68D1E905986FF040079D
:1036D00025F0C00507EA061635432CF4406748EA92
:1036E000090647EA860C24F4E64444EA0E27C3F8A8
:1036F00004C09F614F6809699F631D629F6947F419
:1037000000679F619F6927F480679F6168E000BF41
:10371000036800261D6A1A6AC4F2010622F4807248
:103720001A621A46D3F804C052F81CEFB3428E68EE
:103730000C6825F4007545EA06250FD1CE68D1E95D
:103740000598360240F2FF4725F44065BE433543F5
:103750002CF4405748EA090647EA061C2EF0730786
:103760002743C3F804C0DF614F680969DF631D6246
:10377000DF6947F00807DF61DF6927F00407DF61D1
:103780002FE000BF03680027D3F820C01A6AC4F2F4
:10379000010722F480521A621A465C6852F81C5FD4
:1037A000D1F800E08E68BB4204D14F6924F4804414
:1037B00044EA87142CF4005747EA063725F4E64616
:1037C00046EA0E265C60DE614E6809691E641F626F
:1037D000DF6947F40067DF61DF6927F48067DF6135
:1037E00009021368194311600021BDE8F04300226B
:1037F00080F83C2008467047002804BF012070472D
:1038000010B5044690F83D0028B9002084F83C002B
:10381000204600F01FF8022084F83D002068211D9A
:1038200001F0AAFB012084F8460084F83E0084F8E9
:103830003F0084F8400084F8410084F8420084F896
:10384000430084F8440084F8450084F83D000020DB
:1038500010BD0000704700007047000041B108290A
:1038600010D0042914BF00F1410200F13F020BE027
:1038700090F83E20012A1CBF01207047022280F8E8
:103880003E2013E000F140021278012A1CBF012003
:1038900070470222082907D0042914BF80F841206C
:1038A00080F83F2002E000BF80F84020006801F06F
:1038B0001F010122036A8A4023EA02010162036AAE
:1038C0004421C4F201011A43A1F144039842026267
:1038D00016D040F6FF31C4F2000188421ADCB0F184
:1038E000804F28D040F20041C4F20001884222D02B
:1038F00040F60001C4F2000188421CD020E000BF65
:103900000A6842F400420A6040F6FF31C4F2000146
:103910008842E4DD40F60041C4F2000188420AD04A
:1039200044F20001C4F20101884204D00021C4F233
:103930000101884204D1816801F00701062903D002
:10394000016841F001010160002070470068B0F19A
:10395000804F18BF704710B52DED028B40F2481014
:10396000C2F20000FDF78CFC40F2B004C2F2000489
:1039700094F8300001281DD0002840D140F24810B2
:1039800094ED068AC2F20000FDF734FC38EE400ADE
:103990009FED311AB0EEC02AB4EE412AF1EE10FAD2
:1039A00032DA9FED2C0A84ED090ABDEC028BBDE8EA
:1039B0001040704740F24810C2F20000FDF72EFCA4
:1039C00094F8300001281AD194ED072AB7EE001AB6
:1039D000B0EEC23AB4EE413AF1EE10FA32EE400ADD
:1039E00020DAB0EEC02AB4EE412AF1EE10FA19DA6C
:1039F00040F238010020C2F2000160620862BDECB2
:103A0000028BBDE81040704740F21000C2F2000087
:103A100001F0AEF984ED090ABDEC028BBDE810405F
:103A2000704700BF40F23800C2F2000001F0A0F978
:103A300094ED071A9FED062A21EE021A30EE010AD4
:103A400084ED090ABDEC028BBDE81040704700BF51
:103A50006F12033B000000000AD7233C70470000B0
:103A600070B582B0044690F8420020280AD113466F
:103A70000A4600294FF0010018BF002B06D102B002
:103A800070BD00BF022002B070BD00BF20630026E1
:103A900022206663A262A385666484F84200E06B1C
:103AA00045F2F91C45F259352168C0F6000CC0F604
:103AB0000005C0E90FC545F27D05C0F600050431DB
:103AC000C0E91356FEF76AFAE0B3102060642020C4
:103AD00084F842000120216B012940F0B3800021CD
:103AE000009121680A68009249680091009900BF1E
:103AF000216851E8031F226841F0100142E80313D6
:103B0000002BBCD0216851E8031F226841F010014E
:103B100042E80313002BB2D0216851E8031F22684A
:103B200041F0100142E80313002BA8D0216851E8AE
:103B3000031F226841F0100142E80313002BD7D184
:103B40009DE700BF019620680168019140680190DF
:103B50000198206930B300BF206850E8030F216846
:103B600040F4807041E80302E2B1206850E8030F9E
:103B7000216840F4807041E803029AB1206850E85F
:103B8000030F216840F4807041E8030252B12068BD
:103B900050E8030F216840F4807041E80302002AD6
:103BA000DAD100BF206850E8050F216840F001001D
:103BB00041E80502BAB3206850E8050F216840F0DB
:103BC000010041E8050272B3206850E8050F216842
:103BD00040F0010041E805022AB3206850E8050FD3
:103BE000216840F0010041E80502002ADAD11AE01C
:103BF000206850E8050F216840F0400041E80502C8
:103C0000DAB1206850E8050F216840F0400041E833
:103C1000050292B1206850E8050F216840F040008D
:103C200041E805024AB1206850E8050F216840F0DC
:103C3000400041E80502002ADAD10020216B012969
:103C40003FF44DAF012002B070BD0000006841F2AA
:103C50000002C4F20102904218BF704740F21810EF
:103C6000C2F20000418001210170704770470000DE
:103C7000B0B582B0044600680168C368426901F0CB
:103C80002F05202D03F0200506D12DB1204602B0CE
:103C9000BDE8B04001F06CBB5FEA017C1EBF02F0E2
:103CA000010E03F4907212EB0E0243D1226BCD068B
:103CB00018D5012A16D113F0100213D0002101915A
:103CC00001680191416801910199406940063BD426
:103CD000A08DE18DE28D002A18BF884240F0FE8160
:103CE00002B0B0BD0A0640F1E98013F0800200F096
:103CF000E58094F841102129F2D1A168B1F5805FE7
:103D000003D12169002900F06F82216A4A1C2262D6
:103D100009784160E18C01390A04E184E0D1C1688D
:103D200021F08001C160C16841F04001C16002B072
:103D3000B0BD00BFCA0718BF13F4807240F0DC802A
:103D40004A0700F1DF80E4E0E06B01684A68A38D78
:103D500091B2002900F0C680994280F0C380E285CC
:103D6000C069B0F5807F00F09C80206850E8030FA8
:103D7000216820F4807041E80302DAB1206850E83D
:103D8000030F216820F4807041E8030292B120689B
:103D900050E8030F216820F4807041E803024AB123
:103DA000206850E8030F216820F4807041E8030286
:103DB000002ADAD1206850E8050F216820F00100C0
:103DC00041E80502DAB1206850E8050F216820F0CB
:103DD000010041E8050292B1206850E8050F216812
:103DE00020F0010041E805024AB1206850E8050FC3
:103DF000216820F0010041E80502002ADAD120689C
:103E000050E8050F216820F0400041E80502DAB1D2
:103E1000206850E8050F216820F0400041E80502C5
:103E200092B1206850E8050F216820F0400041E879
:103E300005024AB1206850E8050F216820F04000D3
:103E400041E80502002ADAD1202084F8420000204F
:103E50002063206850E8030F216820F0100041E83B
:103E60000302DAB1206850E8030F216820F0100047
:103E700041E8030292B1206850E8030F216820F066
:103E8000100041E803024AB1206850E8030F21689E
:103E900020F0100041E80302002ADAD1E06BFDF7C0
:103EA00091FE02206063A08DE18D401A81B2204610
:103EB00002B0BDE8B040FFF7C9BE00BF49067FF5BC
:103EC0000FAF13F040013FF40BAFC16821F0400188
:103ED000C1602021204684F8411002B0BDE8B04006
:103EE00000F0F4BA8B427FF4FBAEC069B0F5807F7E
:103EF0007FF4F6AE02226AE1626C42F00102626473
:103F00004A0706D5BEF1000F03D0626C42F00202F0
:103F100062648A0706D5BEF1000F03D0626C42F0DE
:103F200004026264BCF1000F06D55EEA050203D00C
:103F3000626C42F008026264626C002A3FF4D0AE08
:103F4000890604D51DB1204601F012FA20684069A7
:103F5000616C00F0400001F00801401800F0B680EC
:103F6000206850E8030F216820F4907041E80302B4
:103F7000BAB3206850E8030F216820F4907041E83C
:103F8000030272B3206850E8030F216820F4907098
:103F900041E803022AB3206850E8030F216820F4A7
:103FA000907041E80302002ADAD11AE0206850E854
:103FB000050F216820F0010041E80502DAB1206810
:103FC00050E8050F216820F0010041E8050292B198
:103FD000206850E8050F216820F0010041E8050243
:103FE0004AB1206850E8050F216820F0010041E83F
:103FF0000502002ADAD1206B012824D1206850E87C
:10400000030F216820F0100041E80302DAB12068B4
:1040100050E8030F216820F0100041E8030292B13C
:10402000206850E8030F216820F0100041E80302E7
:104030004AB1206850E8030F216820F0100041E8E1
:104040000302002ADAD1202084F8420000202063F5
:1040500020684069400640F1C180206850E8050FA3
:10406000216820F0400041E80502DAB1206850E8FC
:10407000050F216820F0400041E8050292B1206858
:1040800050E8050F216820F0400041E805024AB1E0
:10409000206850E8050F216820F0400041E8050243
:1040A000002ADAD1E06B002800F0988045F2710117
:1040B000C0F600010165FDF7CDFD00283FF410AE0C
:1040C000E06B016D02B0BDE8B04008472046FFF745
:1040D000CDFD0020606402B0B0BD00BF401A00BF3B
:1040E000216851E8031F226821F4907142E803130C
:1040F000BBB3216851E8031F226821F4907142E8A4
:10410000031373B3216851E8031F226821F49071EF
:1041100042E803132BB3216851E8031F226821F4FE
:10412000907142E80313002BDAD11AE0216851E8BC
:10413000051F226821F0010142E80513DBB1216867
:1041400051E8051F226821F0010142E8051393B1EF
:10415000216851E8051F226821F0010142E805139A
:104160004BB1216851E8051F226821F0010142E8A6
:104170000513002BDAD1202184F84210002121639D
:10418000216851E8031F226821F0100142E803135F
:10419000DBB1216851E8031F226821F0100142E8D9
:1041A000031393B1216851E8031F226821F0100125
:1041B00042E803134BB1216851E8031F226821F044
:1041C000100142E80313002BDAD1022281B220460B
:1041D000626302B0BDE8B040FFF738BD204602B0D0
:1041E000BDE8B040FFF742BD216A31F8022B6FF302
:1041F0005F22426021628DE5002804BF01207047E4
:1042000010B5044690F8410028B9002084F8400019
:10421000204600F021F8242084F841002068C1687D
:1042200021F40051C160204601F022F920680169A3
:1042300021F490410161416921F02A014161C16885
:1042400041F40051C16000202021606484F84110D5
:1042500084F84210606310BD2DE9F04786B0044633
:10426000006841F20007C4F20107B84202D006B06C
:10427000BDE8F087002643F630000196C4F2020044
:10428000416901AD41F01001416141694FF00208FF
:1042900001F0100101910199019601684FF00309A5
:1042A00041F00101016001684FF0070A01F00101CE
:1042B000019101990196016841F0020101600068D5
:1042C000294600F00200019001984FF4004001904F
:1042D00007F57040CDE90286CDF81090CDF814A016
:1042E000FDF7C2FE0820CDE9010803A880E84006DA
:1042F00007F574402946FDF7B7FE40F2AC1546F2CB
:104300004040C2F20005C4F202004FF000614FF4D9
:10431000806285E843002846C5E90362C5E9056671
:10432000C5E907666E62FDF787FD002818BFFDF737
:104330005DF8252000210022E563AC63FEF750FB09
:104340002520FEF73BFB06B0BDE8F0877047000074
:10435000704700002DE9F041044690F84100202804
:104360001CBF0220BDE8F0810D4600294FF001007E
:1043700000F0AA801646002A08BFBDE8F0810020A0
:1043800060642120984684F84100FDF743FFA6842D
:10439000E684A1680646B1F5805F02D12069002855
:1043A00062D02F460025E08C002861D018F1010072
:1043B00018D0B8F1000F37D1216808E017F8010BC9
:1043C0004860E08C0138E084E08C002851D0086817
:1043D000000673D5002FF1D135F8020B00276FF3DB
:1043E0005F20EDE7216802E00868000609D408684C
:1043F000000606D4086800065CBF08685FEA006033
:10440000F2D51FB117F8010B05E000BF35F8020B1C
:1044100000276FF35F204860E08C0138E084E08C77
:104420000028E4D125E000BF216800BF086800062D
:1044300008D4FDF7EFFE801B404541D82168C868CD
:10444000F4E700BF17B117F8010B04E035F8020BD1
:1044500000276FF35F204860E08C0138E084E08C37
:104460000028E3D105E000BF0027E08C00289DD1A3
:104470002168086840061FD4B8F1000F1ED018F15B
:1044800001000FD10868400616D40868400613D40E
:104490000868400610D4086840064FF00000F1D5C7
:1044A0000FE000BFFDF7B6FE801B404508D820682E
:1044B000C16800684006F5D5002002E0FDF7AAFEBD
:1044C0000320202184F84110BDE8F08170470000EE
:1044D000FEE7000070B50368044653F8140F400768
:1044E00011D40E46481C29D086BB00BF1868400571
:1044F00027D4FDF78FFE236853F8140F400737D5F4
:1045000018684007F2D5002070BD00BF186840074A
:10451000F9D41868400514D418684007F3D4186813
:1045200040050ED418684007EDD41868400508D43B
:10453000186840074FF0000048BF70BD186840057C
:10454000E4D56FF480601860042012E0154603E0A3
:1045500053F8140F4007D6D418684005F1D4FDF77E
:1045600059FE401B2368B042F2D958694007EFD486
:10457000202000212022216384F83D2084F83E1071
:10458000226C10432064012084F83C1070BD0000B0
:104590002DE9F041054600681E46144601F47F02ED
:1045A00001338FB242D0DDF81880B2F5803F40F081
:1045B000878040693840C01BB0FA80F04009A042B3
:1045C00040F0C8804EB924E040693840C01BB0FAC2
:1045D00080F04009A04240F0BD80FDF71BFEA0EB3B
:1045E00008012868B142EFD941693940C91BB1FAC5
:1045F00081F14909A142E7D19BE000BF4069384001
:10460000C01BB0FA80F04009A0424FF0000040F01B
:10461000A280FDF7FFFD286841693940C91BB1FA46
:1046200081F14909A142E9D183E000BFB2F5803FA1
:1046300024D100BF41693940C91BB1FA81F1490950
:10464000A14240F0878041693940C91BB1FA81F12C
:104650004909A14240F07E8041693940C91BB1FA45
:1046600081F14909A14275D141693940C91BB1FAAB
:1046700081F14909A142DDD06CE000BF8169394078
:10468000C91BB1FA81F14909A14263D1816939405D
:10469000C91BB1FA81F14909A1425BD18169394055
:1046A000C91BB1FA81F14909A14253D1816939404D
:1046B000C91BB1FA81F14909A142DFD04AE000BF2C
:1046C00080693840C01BB0FA80F04009A04241D157
:1046D00046B923E080693840C01BB0FA80F0400939
:1046E000A04237D1FDF796FDA0EB08012868B14242
:1046F000F0D981693940C91BB1FA81F14909A14258
:10470000E8D116E080693840C01BB0FA80F040095B
:10471000A0424FF0000018BFBDE8F081FDF77AFD20
:10472000286881693940C91BB1FA81F14909A14260
:10473000E8D100202021286385F83D1085F83E004F
:10474000296C41F02001296485F83C000120BDE876
:10475000F08100BF0020BDE8F0810000F0B581B01D
:10476000044600681D4643698FB203EA0701B94257
:1047700002D1002001B0F0BD4169164601323FD0A0
:1047800049053FD4CEB100BFFDF744FD411B206871
:10479000B14203D941693940B94215D14169394023
:1047A000B942E6D041694905EED52BE0416939406F
:1047B000B942DED04169490524D4FDF72BFD2068BC
:1047C00041693940B942F1D0202023E041693940A4
:1047D000B942CED04169490514D441693940B94242
:1047E000C7D0416949050DD441693940B942C0D0AB
:1047F0004169490506D441693940B942B9D0416996
:104800004905E3D5016841F4007101606FF48061EE
:104810004161042000212022216384F83D2084F896
:104820003E10226C1043206484F83C10012001B03B
:10483000F0BD000070B504460068154650F8143FFE
:104840005A063DD40E4629B926E000BF50F8141F81
:10485000490635D40168C90621D4FDF7DBFC411BAC
:104860002068B142F2D941694906EFD400202021E5
:10487000206384F83D1084F83E00206C40F0200056
:1048800018E000BFFDF7C6FC206850F8141F490669
:10489000ECD50168490613D40168C906F2D56FF05A
:1048A0001001016000202021206384F83D1084F86D
:1048B0003E00206C2064002084F83C00012070BD84
:1048C000002070BD70B50368044653F8140F00064D
:1048D00011D40E46481C29D086BB00BF186840057D
:1048E00027D4FDF797FC236853F8140F000637D53B
:1048F00018680006F2D5002070BD00BF18680006D9
:10490000F9D41868400514D418680006F3D4186860
:1049100040050ED418680006EDD41868400508D488
:10492000186800064FF0000048BF70BD18684005C9
:10493000E4D56FF480601860042012E0154603E0AF
:1049400053F8140F0006D6D418684005F1D4FDF7CB
:1049500061FC401B2368B042F2D958690006EFD4CD
:10496000202000212022216384F83D2084F83E107D
:10497000226C10432064012084F83C1070BD0000BC
:10498000B0B58CB040F2641042F200010123002463
:10499000C2F20000C4F201010125C0F600730B94BD
:1049A000CDE90644CDE90444CDE90244CDE9004413
:1049B0004FF48032057680F82040C0E90A34C561A2
:1049C00080F8304080E81600C0E903454561FDF7F6
:1049D0000DF8002818BFFCF709FD40F26410C2F280
:1049E000000008A9CDE908450A94FCF7A7FE0028B5
:1049F00018BFFCF7FBFC00204FF4801100900290E0
:104A000007914FF48031ADF81400039040F2641028
:104A1000012402250691C2F2000069460194049522
:104A2000FCF7E8FC002818BFFCF7E0FC40F264103B
:104A3000C2F200006946CDE90045FCF7DBFC002826
:104A400018BFFCF7D3FC0CB0B0BD000080B582B03D
:104A50000020019043F63000C4F2020001680022F9
:104A600041F4800101600068002100F480000190A1
:104A700001983A20FDF7B4FF3A2002B0BDE880402B
:104A8000FDF79CBFF0B587B0002543F630000695D2
:104A90000195C4F202000168002441F08001016028
:104AA0000168C4F2020401F08001019101990195AD
:104AB0000168012241F00101016001684FF40066C4
:104AC00001F001010191019901950168012741F06F
:104AD0000201016000684FF4006100F002000190E3
:104AE00001982046FDF790FB02A92046CDE9026718
:104AF000CDE90475FDF7B8FA07B0F0BD80B540F216
:104B00000C2045F20041C2F20000C4F2000141F65F
:104B1000802200234FF4804CC0F2060280E80E0091
:104B2000C0E9033CC0E90533C0E90733FDF778FB72
:104B3000002808BF80BDBDE88040FCF757BC0000DE
:104B4000B0B59CB0002540F26020C4F20105002100
:104B5000C2F2000060224FF4FA6304241691CDE9FA
:104B600014111191CDE90F11CDE90D11CDE90B1102
:104B7000CDE90911CDE90711CDE90511CDE9031101
:104B8000CDE90111C0E90051C0E90223C0E90414D4
:104B90008161FEF7D5FA002818BFFCF727FC4FF417
:104BA0008050139040F26020C2F2000013A9FEF77B
:104BB000ABFB002818BFFCF719FC40F26020C2F2E2
:104BC0000000FEF719FE002818BFFCF70FFC20209C
:104BD000109040F260200024C2F2000010A911944D
:104BE000FEF764FA002818BFFCF700FC6020CDE94E
:104BF000090440F26020C2F2000009A90022CDE9B8
:104C00000B44CDE90D440F94FEF7FAFC002818BFC1
:104C1000FCF7ECFB40F26020C2F2000009A904227C
:104C2000FEF7EEFC002818BFFCF7E0FB40F2602026
:104C3000C2F2000009A90822FEF7E2FC002818BF12
:104C4000FCF7D4FB40F2602400204FF40051C2F284
:104C500000040590CDE90300CDE90100069108901C
:104C600001A92046FEF7FAF9002818BFFCF7BEFBA1
:104C70002068A84202D01CB0B0BD00BF002043F69F
:104C800030011790C4F202010A6842F001020A6082
:104C9000096801F00101179117994FF4E06117912C
:104CA0000221CDE918101A9001201B9005F58030E3
:104CB00017A9FDF7D9F91CB0B0BD000080B586B0CA
:104CC00040F2A8200021C2F200004FF0804263238E
:104CD00040F2E73C0591CDE90311CDE90011C0E9AF
:104CE0000023C0E9021C01618161FEF729FA002856
:104CF00018BFFCF77BFB4FF48050029040F2A820D5
:104D0000C2F2000002A9FEF7FFFA002818BFFCF764
:104D10006DFB40F2A820C2F200006946FEF7C6F91A
:104D2000002818BFFCF762FB06B080BD80B540F2DA
:104D3000F02041F20001C2F20000C4F201010023A0
:104D40004FF00C0C4FF4E13280E80E00C0E9033361
:104D5000C0E905C3C361FFF74FFA002808BF80BD53
:104D6000BDE88040FCF742BBFEE70000FEE7000024
:104D700010B52DED028BB0EE408A044600F044FDE4
:104D8000616A9FED471A411A00EE101AB8EE400A08
:104D900020EE011AB6EE002AB4EE421A9FED410A47
:104DA000F1EE10FAB5EE401AC8BFB0EE401AF1EEBF
:104DB00010FAD8BFB0EE401A94ED015A94ED064AAD
:104DC00025EE015A94ED086A25EE022A34EE085ABF
:104DD00094ED043A22EE052A94ED000A32EE065ACA
:104DE000B4EE435A20EE080AF1EE10FAB0EE432A70
:104DF0000ADCB1EE436AB4EE465AB0EE452AF1EE53
:104E000010FAB8BFB0EE462A94ED025A38EE444A82
:104E100024EE054A84EE014A30EE020A30EE040A1E
:104E2000B4EE430AF1EE10FA0ADDB0EE430A94ED57
:104E3000034AB5EE404AF1EE10FA11DC26E000BF5D
:104E4000B1EE433AB4EE430AF1EE10FAB8BFB0EE59
:104E5000430A94ED034AB5EE404AF1EE10FA15DD2F
:104E600094ED073A30EE435A85EE015AB4EE445AB7
:104E7000F1EE10FA06DCB1EE444AB4EE445AF1EE1B
:104E800010FA03DA24EE010A30EE030A84ED068AF2
:104E900084ED070A84ED082A6062BDEC028B10BD28
:104EA000BD3786356F12833A7047000070470000A7
:104EB000FDF71ABDB0B592B0002443F64000CDE92D
:104EC0000A44CDE908440594CDE90344CDE9014401
:104ED0000094C4F202000168022541F08051016093
:104EE000006800F080500090009847F200000094A5
:104EF000C4F20000016841F440410160006800F420
:104F0000404000900098012006904FF480300790B8
:104F10004FF480000D900C200E906020CDE90F051D
:104F20000420119006A80C95FDF7A6FE10B172B6EC
:104F3000FEE700BF0F20CDE901054FF48050CDE919
:104F4000040401A803210394FDF786FD10B172B695
:104F5000FEE700BF12B0B0BD4EF68850CEF20000A2
:104F6000016841F4700101607047000040F2A82020
:104F7000C2F20000FEF79ABAB0B540F2FF7E0568B3
:104F8000C4F2000E40F2000C7045C4F2010C1DDDAD
:104F900040F60003C4F20003984220D060451ED0C2
:104FA00040F60043C4F20003984218D04FF6FF7356
:104FB000C4F2000398421DDC704527DCB0F1804F3D
:104FC0003CD040F20043C4F2000335E0B0F1804F22
:104FD00005D040F20043C4F200039842E6D14B688A
:104FE00025F0700243EA02054FF6FF73C4F2000396
:104FF0009842E1DD44F2FF33C4F20103984211DC30
:1050000060451BD044F2000314E000BF40F60003EB
:10501000C4F20003984211D040F60043C4F20003EA
:105020000AE000BF44F60003C4F20103984205D031
:1050300044F20043C4F20103984204D1CB6825F442
:10504000407243EA02050A688C684B696045C46295
:10505000826202D10969CCF83010026825F0800123
:1050600042F0040219430260012242610160B0BDB6
:10507000806B0021C185FEF7F9BD0000806B0168DF
:105080004A6990F84130212B2DD112F080022AD0AC
:105090000021C184016851E8031F026821F0C001AA
:1050A00042E80313DBB1016851E8031F026821F0F5
:1050B000C00142E8031393B1016851E8031F02687D
:1050C00021F0C00142E803134BB1016851E8031F0E
:1050D000026821F0C00142E80313002BDAD120213D
:1050E00080F841100168496990F84220222A40F076
:1050F0007D8011F0400179D00021C185016851E81F
:10510000031F026821F4907142E80313BBB30168E6
:1051100051E8031F026821F4907142E8031373B34E
:10512000016851E8031F026821F4907142E80313FB
:105130002BB3016851E8031F026821F4907142E823
:105140000313002BDAD11AE0016851E8051F026849
:1051500021F0010142E80513DBB1016851E8051FA8
:10516000026821F0010142E8051393B1016851E89A
:10517000051F026821F0010142E805134BB10168E7
:1051800051E8051F026821F0010142E80513002BD8
:10519000DAD1016B012924D1016851E8031F0268AB
:1051A00021F0100142E80313DBB1016851E8031F4D
:1051B000026821F0100142E8031393B1016851E83D
:1051C000031F026821F0100142E803134BB101688C
:1051D00051E8031F026821F0100142E80313002B7D
:1051E000DAD1202180F8421000210163416C41F0A6
:1051F00010014164FEF73ABD0168806B0968C9057A
:1052000000F19F800021C185016851E8031F0268F9
:1052100021F4807142E80313E3B1016851E8031FF0
:10522000026821F4807142E803139BB1016851E8E0
:10523000031F026821F4807142E8031353B101682F
:1052400051E8031F026821F4807142E80313002B28
:10525000DAD100BF016851E8051F026821F00101A1
:1052600042E80513BBB3016851E8051F026821F04D
:10527000010142E8051373B3016851E8051F026894
:1052800021F0010142E805132BB3016851E8051F25
:10529000026821F0010142E80513002BDAD11AE07F
:1052A000016851E8051F026821F0400142E805133A
:1052B000DBB1016851E8051F026821F0400142E8B6
:1052C000051393B1016851E8051F026821F0400100
:1052D00042E805134BB1016851E8051F026821F04F
:1052E000400142E80513002BDAD1202180F842105A
:1052F000016B012925D100BF016851E8031F026835
:1053000021F0100142E80313DBB1016851E8031FEB
:10531000026821F0100142E8031393B1016851E8DB
:10532000031F026821F0100142E803134BB101682A
:1053300051E8031F026821F0100142E80313002B1B
:10534000DAD100214163016B012918BFFEF7FEBFCE
:10535000818DFEF77BBC0000806B01214163016BF6
:10536000012918BFFEF7F4BF818D4908FEF76EBC16
:1053700081B090F84210222921D183680246B3F50A
:10538000805F09D152F8281F52F8183C002B63D0D7
:1053900003685B680AE000BF52F8281F13B903696D
:1053A000002BF5D003685B6803F07F030B70116876
:1053B00001311160C18D01390A04C18502D001B0EB
:1053C000704700BF0168CA6822F02002CA60CA683C
:1053D00022F48072CA604A6922F001024A612021E7
:1053E00080F8421000214163026B012A3CD1016325
:1053F000016851E8031F026821F0100142E803131D
:10540000DBB1016851E8031F026821F0100142E896
:10541000031393B1016851E8031F026821F01001E2
:1054200042E803134BB1016851E8031F026821F001
:10543000100142E80313002BDAD101680A68D20692
:1054400006D5002200920A680092496800910099EE
:10545000818D01B0FEF7FABB026852686FF35F22DC
:1054600021F8022B8162A5E701B0FEF76FBF0000B3
:1054700010B504460068D4E902C22369016921F429
:10548000405111430161626943EA0C01E369114330
:10549000C268194349F20C639A431143C1604169E0
:1054A000A26921F4407141F20043114340F480624B
:1054B000C4F201039A42416102D1FDF793FB01E07E
:1054C000FDF77CFBE16963681922B1F5004FA0FB91
:1054D000020123D15A00DB0FFAF77AFE48F21F517E
:1054E000C5F2EB11A0FB01235A094FF69C73C0F6DD
:1054F000FF7303F1805302FB0300322303EBC00070
:10550000A0FB01014FF4F87000EA111000EB02104B
:10551000C1F3421108442168886010BD9A009B0FB6
:10552000FAF756FE48F21F51C5F2EB11A0FB01231A
:105530005A094FF69C73C0F6FF7302FB0300322337
:1055400003EB0010A0FB0101F02000EA511000EB7A
:105550000210C1F3431108442168886010BD0000A7
:1055600040F2F020C2F20000FEF782BB10B582B01C
:1055700040F21814C2F200042078A8B360881F28F3
:1055800004D860882044083002E000BF04F12700FE
:1055900000210170CDE9001104F1080014A101AA55
:1055A0006B46FAF747FE022808D10198411E0329ED
:1055B00007D304281AD10098606002E00EA001F021
:1055C00069FD00202146C4E90300C4E90500C4E9DF
:1055D0000700606241F8080F207040F2F020C2F22C
:1055E00000002022FEF73CFA02B010BD0AA0E6E758
:1055F0004425643A256600004572726F723A20496C
:105600006E76616C696420636F6D6D616E64206697
:105610006F726D61742E00004572726F723A20498C
:105620006E76616C696420706172616D657465721B
:1056300020696E6465780000FEE7000010B52DED6E
:10564000028B40F24814C2F200042046FBF718FE19
:105650002046FBF7D3FD0120B0EE408AFCF7F0FCBA
:105660002046FBF70DFE2046FBF7C8FD012038EE73
:10567000008AFCF7E5FC2046FBF702FE2046FBF71C
:10568000BDFD012038EE008AFCF7DAFC2046FBF76E
:10569000F7FD2046FBF7B2FD012038EE008AFCF74B
:1056A000CFFC2046FBF7ECFD2046FBF7A7FD0120D1
:1056B00038EE008AFCF7C4FC2046FBF7E1FD2046EB
:1056C000FBF79CFD012038EE008AFCF7B9FC204670
:1056D000FBF7D6FD2046FBF791FD012038EE008A4E
:1056E000FCF7AEFC2046FBF7CBFD2046FBF786FD22
:1056F000012038EE008AFCF7A3FC2046FBF7C0FD32
:105700002046FBF77BFD012038EE008AFCF798FC71
:105710002046FBF7B5FD2046FBF770FD012038EE73
:10572000008AFCF78DFCB2EE040A88EE000A40F213
:105730009000C2F20000D0E901019FED0C8A4843BD
:1057400001EE100AB8EEC11AF0EE480A20EE010A86
:1057500000F049FEB5EE400A30EE081AF1EE10FAFC
:10576000B8BFB0EE410ABDEC028B10BDDB0FC940E3
:1057700080B52DED028B40F29000C2F20000D0E91E
:105780000101484300EE100A40F24810C2F2000046
:10579000B8EEC08AFBF732FD40F2B000C2F2000062
:1057A00090ED0D1A28EE000A9FED098A30EE410AAD
:1057B000F0EE480A00F017FEB5EE400A30EE081A87
:1057C000F1EE10FAB8BFB0EE410ABDEC028B80BD1D
:1057D000DB0FC94080B52DED028B40F29000C2F284
:1057E0000000D0E90101484300EE100A40F24810E1
:1057F000C2F20000B8EEC08AFBF710FD20EE080AE6
:10580000BDEC028B80BD000041F2040040F260114B
:10581000CEF20000C2F2000100680968B0FBF1F0AE
:10582000704700009FED522A9FED521A30EE020A97
:10583000B4EE410AF1EE10FA37DB9FED4F2A00BFBC
:1058400030EE020AB4EE410AF1EE10FA2DDB30EE32
:10585000020AB4EE410AF1EE10FA26DB30EE020A3B
:10586000B4EE410AF1EE10FA1FDB30EE020AB4EE9C
:10587000410AF1EE10FAE3DA17E000BF30EE010A58
:10588000B5EE400AF1EE10FA14DA30EE010AB5EE88
:10589000400AF1EE10FA0DDA30EE010AB5EE400AD8
:1058A000F1EE10FA06DA30EE010AB5EE400AF1EE3A
:1058B00010FAE3DB9FED311A40F23C3C20EE010A86
:1058C000BDEEC01A11EE100A411E6FF31F31421CCB
:1058D000C2F2000CB8EEC12A6FF31F32831C0CEB2E
:1058E00081010CEB800030EE420A91ED001A90ED40
:1058F000002A0CEB82006FF31F3390ED003AB7EEF5
:10590000085ABEEE006A0CEB830022EE055A21EE27
:10591000067AFFEE080A90ED004A37EE055A63EE6C
:10592000200A30EE855AF6EE000A64EE201A31EEB7
:10593000855AF8EE041A62EE211A31EE811A73EEDE
:10594000031A31EE811A24EE064A34EE011A25EECE
:10595000004A23EE203A34EE011A37EE033A21EEE4
:10596000001A31EE031A21EE000A30EE020A7047E7
:10597000DB0FC93FDB0FC940DB0FC9C083F92244ED
:105980009FED501AB4EE410AF1EE10FA37DB9FEDAD
:105990004E2A00BF30EE020AB4EE410AF1EE10FAD0
:1059A0002DDB30EE020AB4EE410AF1EE10FA26DBEE
:1059B00030EE020AB4EE410AF1EE10FA1FDB30EECF
:1059C000020AB4EE410AF1EE10FAE3DA17E000BF82
:1059D00030EE010AB5EE400AF1EE10FA14DA30EEBC
:1059E000010AB5EE400AF1EE10FA0DDA30EE010AC6
:1059F000B5EE400AF1EE10FA06DA30EE010AB5EE25
:105A0000400AF1EE10FAE3DB9FED301A40F23C3C25
:105A100020EE010ABDEEC01A11EE100A411E6FF30E
:105A20001F31421CC2F2000CB8EEC12A6FF31F32C4
:105A3000831C0CEB81010CEB800030EE420A91EDEF
:105A4000001A90ED002A0CEB82006FF31F3390EDEB
:105A5000003AB7EE085ABEEE006A0CEB830022EE65
:105A6000055A21EE067AFFEE080A90ED004A37EE5D
:105A7000055A63EE200A30EE855AF6EE000A64EE0F
:105A8000201A31EE855AF8EE041A62EE211A31EE30
:105A9000811A73EE031A31EE811A24EE064A34EEAF
:105AA000011A25EE004A23EE203A34EE011A37EEB1
:105AB000033A21EE001A31EE031A21EE000A30EE0D
:105AC000020A7047DB0FC940DB0FC9C083F92244CB
:105AD00070B52DED028B40F23C30C2F200009FED1C
